:020000040800F2
:100000000000022021250008990C00089B0C000824
:100010009D0C00089F0C0008A10C000800000000C7
:10002000000000000000000000000000A30C000819
:10003000A50C000800000000A70C0008A90C00088F
:100040007125000871250008712500087125000838
:1000500071250008712500080907000871250008AE
:100060007125000871250008712500087125000818
:100070007125000871250008712500087125000808
:10008000B10C0008712500087125000871250008D1
:1000900071250008712500087125000871250008E8
:1000A00071250008712500087125000871250008D8
:1000B00071250008712500087125000871250008C8
:1000C00071250008712500087125000871250008B8
:1000D00071250008712500087125000871250008A8
:1000E0007125000871250008712500087125000898
:1000F0007125000871250008712500087125000888
:100100007125000871250008712500087125000877
:100110007125000871250008712500087125000867
:100120007125000871250008712500087125000857
:100130007125000800000000000000007125000883
:100140007125000871250008712500087125000837
:100150007125000871250008712500087125000827
:100160007125000871250008712500087125000817
:1001700071250008712500087125000800000000A5
:1001800000000000712500080000000000000000D1
:100190007125000800000000000000007125000823
:1001A00000000000000000000000000071250008B1
:1001B00071250008712500087125000871250008C7
:0401C000712500089D
:1001C40010B5054C237833B9044B13B10448AFF38D
:1001D40000800123237010BD408601200000000030
:1001E400CC25000808B5034B1BB103490348AFF302
:1001F400008008BD0000000044860120CC250008D2
:1002040053B94AB9002908BF00281CBF4FF0FF3179
:100214004FF0FF3000F088B9ADF1080C6DE904CE61
:1002240000F006F8DDF804E0DDE9022304B07047CD
:100234002DE9F047089D8E4604468846002B4AD196
:100244008A42174662D9B2FA82F64EB1C6F1200349
:1002540001FA06F820FA03F3B74043EA0808B44069
:100264004FEA174E1FFA87FCB8FBFEF1230C0EFB76
:10027400118843EA084301FB0CF29A4209D9FB189E
:1002840001F1FF3080F0EA809A4240F2E7800239BF
:100294003B449A1AA3B2B2FBFEF00EFB102243EACF
:1002A400024300FB0CFC9C4509D9FB1800F1FF320A
:1002B40080F0D6809C4540F2D3803B44023840EA2B
:1002C4000140A3EB0C0300211DB1F3400022C5E95A
:1002D4000032BDE8F0878B4205D90DB1C5E90001B4
:1002E40000210846F5E7B3FA83F1002946D17345A6
:1002F40002D3824200F20581841A6EEB03020120CC
:100304009046002DE5D0C5E90048E2E7002A00F058
:100314009080B2FA82F6002E40F0A4808A1A030C70
:100324004FEA174E80B2BCB20121B2FBFEFC0EFBB9
:100334001C2243EA024304FB0CF29A4207D9FB183D
:100344000CF1FF3802D29A4200F2E080C4469B1AB4
:10035400B3FBFEF20EFB123340EA034302FB04F448
:100364009C4207D9FB1802F1FF3002D29C4200F2F2
:10037400CA8002461B1B42EA0C40A5E7C1F12006D5
:100384008B4022FA06F71F430EFA01F420FA06F313
:100394002EFA06FE4FEA1749234300FA01F81FFA22
:1003A40087FCBEFBF9F01C0C09FB10EE44EA0E447A
:1003B40000FB0CFEA64502FA01F209D93C1900F132
:1003C400FF3A80F09C80A64540F2998002383C4474
:1003D400A4EB0E041FFA83FEB4FBF9F309FB1344E8
:1003E4004EEA044403FB0CFCA44508D93C1903F170
:1003F400FF3E80F08280A4457FD9023B3C4443EA1F
:100404000040A4EB0C04A0FB02EC64457346E146F7
:1004140062D35FD05DB1B8EB030264EB090404FA64
:1004240006F622FA01F31E43CC40C5E9006400211C
:100434004FE7B1FBF2FC010C41EA0E4180B240EA05
:1004440001423B4638463C46B846BE462026B1FBF0
:10045400F7F1A2EB080241EA0C4166E7014618E70E
:1004640010462CE7C6F120022EFA02F3B740B14041
:1004740020FA02F24FEA174E0A43B3FBFEF8BCB26D
:100484000EFB1833110C41EA034108FB04F9B04098
:1004940089454FEA104380B23ED9791808F1FF3CF0
:1004A40001D289451FD8A1EB0901B1FBFEF909FB73
:1004B40004F80EFB191192B242EA0142424529D2D4
:1004C400BA1809F1FF31C4D24245C2D2A9F10201DE
:1004D4003A44BEE7F0459DD2BEEB02036CEB070C39
:1004E4000138E14696E7A7EB09094944A8F1020C53
:1004F400B1FBFEF909FB04F8DBE773467FE75046DE
:1005040066E70846FDE63B44023A33E7ACF1020CE9
:100514003B441CE749469CE7A1EB0901C446B1FBF7
:10052400FEF909FB04F8C4E7704700BF2DE9F04168
:100534008AB00024059406940794089409940194BD
:10054400354B1A6B42F004021A631A6B02F0040270
:100554000192019A02941A6B42F080021A631A6B98
:1005640002F080020292029A03941A6B42F0010292
:100574001A631A6B02F001020392039A04941A6B31
:1005840042F002021A631B6B03F002030493049B00
:10059400DFF8908022464FF44041404601F0A4FC2D
:1005A4001E4F22464FF44071384601F09DFC1C4D0D
:1005B40022464FF41041284601F096FC4FF4404384
:1005C4000593012606960794089405A9404601F070
:1005D4009BFB4FF44073059305A9384601F094FB47
:1005E4004FF41043059305A9284601F08DFB0596A9
:1005F4004FF488130693079605A9284601F084FB57
:1006040022460221062001F0F1FE062001F0FEFE42
:100614000AB0BDE8F08100BF003802400004024087
:10062400000002400008024000B583B0002101919F
:10063400094B1A6B42F400121A631B6B03F4001388
:100644000193019B0A46102001F0D0FE102001F016
:10065400DDFE03B05DF804FB0038024008B51F4B13
:100664001B68022B11D91D4B1B68032B30D01B4B6D
:100674001B68042B04D0DFED1A7A4FF4005307E013
:10068400DFED187A4FF4005302E0F6EE007A80238F
:1006940007EE103AB8EE477A27EE277ADFED126AB2
:1006A400C6EE877AFCEEE77A17EE902A013A0F49F4
:1006B4000A600F490868C262CA60084A10680D4A95
:1006C40012680D4951F820100C4801F005FD08BDD1
:1006D400DFED0B7A4FF40053DAE700BF64860120A4
:1006E400EC51B83DCDCCCC3D0024744B6086012048
:1006F40010870120000000201C00002068860120D3
:100704008FC2753D10B501F0E5FE154B1B68C31A89
:10071400B3F5967F1FD3124B1860124801F011FDF8
:10072400114C22680132114BA3FB02139B0803EB0B
:100734004303A2EB43032360012000F023FA226861
:100744000B4B53F8220000F011FAFFF787FF01204A
:1007540001F0D2FB10BD012001F0CEFBFAE700BF8F
:100764005C8601206886012064860120ABAAAAAABF
:100774000400002072B6FEE700B58FB000230A9390
:100784000B930C930D930893099301930293039392
:1007940004930593069307932F484FF08042026019
:1007A40043608360C3600361836100F08BFC0028B5
:1007B40045D14FF480530A930AA9274800F0E8FD75
:1007C40000283ED1244800F0A9FC00283BD1402356
:1007D40008930023099308A91F4800F0E9FE0028A4
:1007E40033D10022019202920392059201A91A4880
:1007F40000F024FD58BB1948194B03604FF0C06347
:100804004360402383600023C3604FF4806202612D
:100814004FF4805242614FF4804282614FF48072FF
:10082400C2614FF400320262436201F0EFFB80B90F
:10083400094A0A4B53629A630FB05DF804FBFFF751
:1008440099FFFFF797FFFFF795FFFFF793FFFFF778
:1008540091FFFFF78FFF00BF1087012068860120FA
:100864008860024000B58FB000230A930B930C9369
:100874000D930893099301930293039304930593AF
:10088400069307931E481F4A02604360836040F644
:10089400FF72C2600361836100F014FC28BB4FF453
:1008A40080530A930AA9164800F072FDF8B9144857
:1008B40000F060FCE8B900230893099308A91048E4
:1008C40000F076FEB8B960230193002302930393EA
:1008D4000593082201A90A4800F0DFFC68B908481A
:1008E40000F054FA0FB05DF804FBFFF743FFFFF785
:1008F40041FFFFF73FFFFFF73DFFFFF73BFF00BF5F
:10090400C88601200004004000B595B034220021BF
:1009140007A801F02CFE002302930393049305938C
:1009240006930093194A116C41F080511164126CC2
:1009340002F080520092009A019315490A6822F449
:10094400404242F480420A600A6802F44042019242
:10095400019A0222079201220A9210220B920D930D
:1009640007A800F0AFFF68B90F2302930021039199
:1009740004910591069102A800F060FE20B915B01B
:100984005DF804FBFFF7F6FEFFF7F4FE00380240C3
:100994000070004008B501F077FDFFF7B5FFFFF7E1
:1009A400C5FDFFF741FEFFF7E7FEFFF75BFF1E20E3
:1009B40001F096FD332000F0E5F8322000F0E2F873
:1009C4000C2000F0DFF8282000F0DCF8012000F013
:1009D400D9F808210A4800F069FD0A4C204600F0C5
:1009E400C9FAFFF73BFE084B1A68084B53F822007C
:1009F40000F0BCF82268D36843F40073D360FEE7C8
:100A0400C88601201087012064860120040000208C
:100A140082B000EB40000023019304E000BF00BF5C
:100A2400019B01330193019B8342F7D302B07047CA
:100A340010B51420FFF7ECFF094CA36943F40043FD
:100A4400A3611420FFF7E4FFA36943F00043A3610B
:100A54001420FFF7DDFFA36943F40043A36110BD35
:100A64000008024010B504463D4A936943F48043AC
:100A7400936110F0800F41D13A4A936943F00043E7
:100A8400936114F0400F40D0364A936943F4805385
:100A9400936114F0200F3ED0334A936943F40073FA
:100AA400936114F0100F3CD02F4A936943F4807380
:100AB4009361FFF7BDFF14F0080F38D0294A9369FA
:100AC40043F40043936114F0040F36D0254A93692C
:100AD40043F48053936114F0020F34D0224A936993
:100AE40043F40073936114F0010F32D01E4A9369EA
:100AF40043F480739361FFF79BFF10BDA2F500627E
:100B0400936943F400439361BBE7164A936943F046
:100B140080539361BDE7144A936943F00073936172
:100B2400BFE7114A936943F080739361C1E70D4AAB
:100B3400936943F000439361C5E70A4A936943F01C
:100B440080539361C7E7084A936943F00073936144
:100B5400C9E7054A936943F080739361CBE700BF0B
:100B640000080240000002400004024038B5054677
:100B7400002403E0FFF776FF0134E4B2285D002887
:100B8400F8D138BD10B504463F4A936943F0804319
:100B9400936110F0800F45D13C4A936943F00043C0
:100BA400936114F0400F44D0384A936943F480535E
:100BB400936114F0200F42D0354A936943F40073D3
:100BC400936114F0100F40D0314A936943F4807359
:100BD4009361FFF72DFF14F0080F3CD02B4A936963
:100BE40043F40043936114F0040F3AD0274A936905
:100BF40043F48053936114F0020F38D0244A93696C
:100C040043F40073936114F0010F36D0204A9369C2
:100C140043F480739361FFF70BFF40F6B830FFF79E
:100C2400F7FE10BDA2F50062936943F4004393619B
:100C3400B7E7164A936943F080539361B9E7144ABE
:100C4400936943F000739361BBE7114A936943F0DE
:100C540080739361BDE70D4A936943F00043936148
:100C6400C1E70A4A936943F080539361C3E7084A92
:100C7400936943F000739361C5E7054A936943F0B0
:100C840080739361C7E700BF000802400000024080
:100C940000040240FEE7FEE7FEE7FEE7FEE77047DA
:100CA4007047704708B501F009FC08BD08B5024853
:100CB40001F05AFA08BD00BF6886012082B0002105
:100CC40000910B4B5A6C42F480425A645A6C02F401
:100CD40080420092009A01911A6C42F080521A6488
:100CE4001B6C03F080530193019B02B0704700BF5B
:100CF4000038024010B582B00368B3F1804F04D0CD
:100D04001E4A93422CD002B010BD04460023009327
:100D14001B4A116C41F001011164126C02F00102D2
:100D24000092009A1748184A02604FF0C06242606D
:100D34008360C3604FF4806202614FF48052426169
:100D44004FF480428261C3610362436201F05EF941
:100D540018B90C4B63629C63D5E7FFF70BFDF8E70A
:100D640000230193064B1A6C42F002021A641B6CB6
:100D740003F002030193019BC5E700BF0004004098
:100D840000380240688601208860024000B587B0C0
:100D940000230193029303930493059302680E4B7B
:100DA4009A4202D007B05DF804FB002300930B4B7A
:100DB4001A6B42F002021A631B6B03F002030093E6
:100DC400009B0123019302230293059301A9044884
:100DD40000F09AFFE6E700BF00040040003802403C
:100DE4000004024030B4036A026A22F00102026283
:100DF4004268846924F0730C0C6844EA0C0423F000
:100E0400020C8B6843EA0C03114DA84203D005F58C
:100E14008065A84205D123F00803CD682B4323F055
:100E240004030B4DA84203D005F58065A84207D101
:100E340022F440724D6945EA020C8A6942EA0C02C6
:100E4400426084614A684263036230BC704700BFF9
:100E54000000014030B4036A026A22F48072026224
:100E64004268C46924F0730C0C6844EA0C0523F44A
:100E740000738C6843EA0423114CA04203D004F5A8
:100E84008064A04206D123F40063CC6843EA0423BF
:100E940023F480630A4CA04203D004F58064A0428A
:100EA40007D122F440524C6942EA04128C6942EAA6
:100EB40004124260C5614A68C263036230BC704771
:100EC4000000014030B4036A026A22F480520262D4
:100ED4004468C26922F4E6420D6842EA052223F41A
:100EE40000538D6843EA0533094DA84203D005F544
:100EF4008065A84204D124F480444D6944EA8514F1
:100F04004460C2614A680264036230BC704700BF37
:100F14000000014010B4036A046A24F0010404626E
:100F2400846924F0F00C4CEA021223F00A030B4308
:100F3400826103625DF8044B704710B4036A046A6B
:100F440024F010040462846924F4704C4CEA0232E4
:100F540023F0A00343EA0113826103625DF8044BAA
:100F64007047836823F070030B4343F007038360E7
:100F74007047000090F83D30DBB2012B32D10223E0
:100F840080F83D300368194A934220D0B3F1804F72
:100F94001DD0A2F57C42934219D002F5806293429F
:100FA40015D002F58062934211D002F57842934243
:100FB4000DD002F57052934209D0A2F594329342B7
:100FC40005D01A6842F001021A60002070479A683E
:100FD40002F00702062A07D01A6842F001021A60DA
:100FE4000020704701207047002070470000014036
:100FF400704770470368324A904212D0B0F1804F74
:101004000FD0A2F57C4290420BD002F58062904250
:1010140007D002F58062904203D002F578429042F4
:1010240003D123F070034A681343254A90422AD01F
:10103400B0F1804F27D0A2F57C42904223D002F534
:10104400806290421FD002F5806290421BD002F56C
:101054007842904217D002F57052904213D002F5B4
:10106400806290420FD002F5806290420BD0A2F5CC
:101074009832904207D002F58062904203D002F584
:101084008062904203D123F44073CA68134323F06F
:1010940080034A6913438A68C2620A688262084A02
:1010A400904203D002F58062904201D10A69026342
:1010B400026842F004020260012242610360704748
:1010C4000000014040B310B5044690F83D30F3B140
:1010D400022384F83D30214651F8040BFFF78AFFC0
:1010E400012384F8463084F83E3084F83F3084F895
:1010F400403084F8413084F8423084F8433084F836
:10110400443084F8453084F83D30002010BD80F828
:101114003C30FFF7EFFDDBE70120704740B310B52B
:10112400044690F83D30F3B1022384F83D30214663
:1011340051F8040BFFF75EFF012384F8463084F86E
:101144003E3084F83F3084F8403084F8413084F8ED
:10115400423084F8433084F8443084F8453084F8CD
:101164003D30002010BD80F83C30FFF741FFDBE745
:101174000120704740B310B5044690F83D30F3B1F8
:10118400022384F83D30214651F8040BFFF732FF67
:10119400012384F8463084F83E3084F83F3084F8E4
:1011A400403084F8413084F8423084F8433084F885
:1011B400443084F8453084F83D30002010BD80F878
:1011C4003C30FFF716FFDBE70120704730B4036AB9
:1011D400026A22F0100202624468826922F4E64242
:1011E4000D6842EA052223F020038D6843EA0513C3
:1011F400114DA84203D005F58065A84206D123F01D
:101204008003CD6843EA051323F040030A4DA84246
:1012140003D005F58065A84207D124F440644D69E4
:1012240044EA85048D6944EA8504446082614A681D
:101234008263036230BC70470000014090F83C3088
:10124400012B28D010B50446012380F83C300C2A29
:101254001CD8DFE802F0071B1B1B0C1B1B1B111BFC
:101264001B1B16000068FFF7BDFD00200FE000689F
:10127400FFF7ACFF00200AE00068FFF7EBFD002059
:1012840005E00068FFF71EFE002000E001200023B7
:1012940084F83C3010BD0220704738B590F83C30DB
:1012A400012B66D004460D46012380F83C300C2AFD
:1012B4005AD8DFE802F0075959591B59595930597E
:1012C400595944000068FFF78DFD2268936943F083
:1012D400080393612268936923F0040393612268ED
:1012E400936929690B43936100203EE00068FFF78E
:1012F4006DFF2268936943F40063936122689369E4
:1013040023F48063936122689369296943EA012382
:101314009361002029E00068FFF79CFD2268D369EF
:1013240043F00803D3612268D36923F00403D36133
:101334002268D36929690B43D361002015E0006852
:10134400FFF7C0FD2268D36943F40063D3612268C8
:10135400D36923F48063D3612268D369296943EA9A
:101364000123D361002000E00120002384F83C30F5
:1013740038BD0220FCE710B4846824F47F4C42EAB0
:1013840003220A4342EA0C0282605DF8044B704770
:1013940090F83C30012B78D010B50446012380F836
:1013A4003C30022380F83D300268936823F47F4385
:1013B40023F0770393600B68602B4CD023D8402B29
:1013C40054D011D8202B03D00AD80BB1102B05D13F
:1013D40019462068FFF7C5FD002028E0012026E01B
:1013E400302BF5D0012022E0502B0AD1CA6849687D
:1013F4000068FFF78FFD50212068FFF7B2FD002041
:1014040015E0012013E0B3F5805F3AD0B3F5005F37
:1014140014D0702B37D1CB684A6889680068FFF70D
:10142400AAFF2268936843F07703936000200123A6
:1014340084F83D30002384F83C3010BDCB684A6802
:1014440089680068FFF797FF2268936843F4804334
:1014540093600020EBE7CA6849680068FFF76DFDF8
:1014640060212068FFF77DFD0020E0E7CA68496835
:101474000068FFF74FFD40212068FFF772FD002050
:10148400D5E70020D3E70120D1E70220704701F01F
:101494001F014FF0010C0CFA01FC036A23EA0C0350
:1014A4000362036A8A4013430362704710B504461B
:1014B4000846002942D194F83E30DBB2013B18BF04
:1014C4000123002B6ED1002851D1022384F83E3031
:1014D400012201462068FFF7DAFF2368334A93426A
:1014E40003D002F58062934203D15A6C42F4004265
:1014F4005A6423682D4A934249D0B3F1804F46D0B1
:10150400A2F57C42934242D002F5806293423ED0DF
:1015140002F5806293423AD002F57842934236D083
:1015240002F57052934232D0A2F5943293422ED0F7
:101534001A6842F001021A60002032E0042908D03F
:1015440008290DD094F84130DBB2013B18BF0123C8
:10155400B7E794F83F30DBB2013B18BF0123B0E793
:1015640094F84030DBB2013B18BF0123A9E70428FB
:1015740005D0082807D0022384F84130A8E70223C5
:1015840084F83F30A4E7022384F84030A0E79A6847
:1015940002F00702062A07D01A6842F001021A6014
:1015A400002010BD0120FCE70020FAE70000014004
:1015B40090F83C20012A3DD010B40346012280F863
:1015C4003C20022280F83D2002685068946820F094
:1015D400700C086840EA0C0050601A681648824291
:1015E4001AD0B2F1804F17D0A0F57C40824213D0BC
:1015F40000F5806082420FD000F5806082420BD0FB
:1016040000F57840824207D000F57050824203D042
:10161400A0F59430824204D124F080044968214327
:101624009160012283F83D20002083F83C005DF89E
:10163400044B70470220704700000140002800F06E
:101644009B8070B50D4604464F4B1B6803F00F0397
:101654008B4208D2CBB24C4A1370136803F00F03C9
:101664008B4240F08B80236813F0020F17D013F0E5
:10167400040F04D0454A936843F4E053936023680D
:1016840013F0080F04D0414A936843F46043936015
:101694003E4A936823F0F003A1680B4393602368E8
:1016A40013F0010F32D06368012B21D09A1E012A56
:1016B40025D9364A126812F0020F61D033498A687C
:1016C40022F0030213438B6000F004FF06462F4B05
:1016D4009B6803F00C036268B3EB820F16D000F032
:1016E400F9FE801B41F288339842F0D9032042E08E
:1016F400264A126812F4003FE0D101203BE0234A5D
:10170400126812F0007FD9D1012034E01E4B1B680F
:1017140003F00F03AB4207D9EAB21B4B1A701B68E4
:1017240003F00F03AB422DD1236813F0040F06D04E
:10173400164A936823F4E053E1680B4393602368EB
:1017440013F0080F07D0114A936823F4604321690A
:1017540043EAC103936000F021F80C4B9B68C3F388
:1017640003130B4AD35CD8400A4B18600A4B186821
:1017740000F064FE002070BD012070470120FAE7EC
:101784000120F8E70120F6E7003C0240003802405F
:10179400242600083C8601203886012008B5464BE3
:1017A4009B6803F00C03082B05D00C2B43D0042BAF
:1017B4007FD1424819E0404B5A6802F03F025B680F
:1017C40013F4800F12D03C4B5968C1F388113B4885
:1017D4000023A1FB0001FEF713FD374B5B68C3F345
:1017E400014301335B00B0FBF3F008BD324B586892
:1017F400C0F388104FEA401CBCEB000C6EEB0E0EDD
:101804004FEA8E1343EA9C634FEA8C11B1EB0C014F
:1018140063EB0E03DB0043EA5173C90011EB000CC8
:1018240043F10003990200234FEA8C2041EA9C51C2
:10183400FEF7E6FCD1E7204B5A6802F03F025B68F2
:1018440013F4800F10D01C4B5968C1F388111B4846
:101854000023A1FB0001FEF7D3FC174B5B68C3F325
:101864000273B0FBF3F0C0E7134B5868C0F3881061
:101874004FEA401CBCEB000C6EEB0E0E4FEA8E13CD
:1018840043EA9C634FEA8C11B1EB0C0163EB0E034A
:10189400DB0043EA5173C90011EB000C43F1000370
:1018A400990200234FEA8C2041EA9C51FEF7A8FCE0
:1018B400D3E7034899E700BF0038024040787D0130
:1018C4000024F400002800F0018270B582B00446C0
:1018D400036813F0010F41D0994B9B6803F00C038C
:1018E400042B32D0964B9B6803F00C03082B27D0B3
:1018F400934B9B6803F00C030C2B59D06368B3F52E
:10190400803F5BD0B3F5A02F5ED08D4B1A6822F4D4
:1019140080321A601A6822F480221A606368002BED
:101924005CD000F0D7FD0546854B1B6813F4003FDF
:1019340014D100F0CFFD401B6428F5D90320CCE17D
:101944007F4B5B6813F4800FD2D07D4B1B6813F47C
:10195400003F03D06368002B00F0BA81236813F0C2
:10196400020F60D0764B9B6813F00C0F4AD0744B77
:101974009B6803F00C03082B3FD0714B9B6803F06A
:101984000C030C2B69D0E368002B75D06D4B01223E
:101994001A6000F09FFD0546694B1B6813F0020FA7
:1019A40061D100F097FD401B0228F5D9032094E192
:1019B400634B5B6813F4800FA0D0C6E7604A1368DA
:1019C40043F480331360A9E75D4B1A6842F4802224
:1019D4001A601A6842F480321A609FE700F07AFDB8
:1019E4000546574B1B6813F4003FB7D000F072FD57
:1019F400401B6428F5D903206FE1514B5B6813F455
:101A0400800FBAD14E4B1B6813F0020F03D0E3686A
:101A1400012B40F05F814A4A136823F0F8032169DF
:101A240043EAC1031360236813F0080F49D06369C4
:101A3400002B33D0434B0122C3F8802E00F04AFD23
:101A440005463F4B5B6F13F0020F3AD100F042FDA5
:101A5400401B0228F5D903203FE1394B5B6813F49E
:101A6400800F90D1CEE7364A136823F0F80321693A
:101A740043EAC1031360D6E7324B00221A6000F038
:101A840029FD05462E4B1B6813F0020FCBD000F046
:101A940021FD401B0228F5D903201EE1294B002219
:101AA400C3F8802E00F016FD0546254B5B6F13F03E
:101AB400020F06D000F00EFD401B0228F5D90320CA
:101AC4000BE1236813F0040F76D01D4B1B6C13F04D
:101AD400805F33D100230193194B1A6C42F080527A
:101AE4001A641B6C03F080530193019B0125164B70
:101AF4001B6813F4807F29D0A368012B3AD0052BEF
:101B04003ED00F4B1A6F22F001021A671A6F22F0AF
:101B140004021A67A368002B3CD000F0DBFC0646E5
:101B2400074B1B6F13F0020F45D100F0D3FC801B51
:101B340041F288339842F3D90320CEE00025D6E75A
:101B44000038024000004742007000406B4A1368AE
:101B540043F48073136000F0BDFC0646674B1B68BA
:101B640013F4807FC8D100F0B5FC801B0228F5D99E
:101B74000320B2E0624A136F43F001031367C9E71D
:101B84005F4B1A6F42F004021A671A6F42F00102A7
:101B94001A67BFE700F09EFC0646594B1B6F13F013
:101BA400020F08D000F096FC801B41F28833984263
:101BB400F3D9032091E0EDB9A369002B00F08C80E8
:101BC4004F4A926802F00C02082A54D0022B17D014
:101BD4004C4B00221A6600F07DFC0446484B1B68FF
:101BE40013F0007F45D000F075FC001B0228F5D9E6
:101BF400032072E0424A136C23F080531364DBE742
:101C0400404B00221A6600F065FC05463C4B1B68FD
:101C140013F0007F06D000F05DFC401B0228F5D9CC
:101C240003205AE0E369226A1343626A43EA821397
:101C3400A26A5208013A43EA0243E26A43EA0263AF
:101C4400226B43EA02732E4A53602E4B01221A661A
:101C540000F040FC04462A4B1B6813F0007F06D1B9
:101C640000F038FC001B0228F5D9032035E00020E1
:101C740033E0002031E0012B31D0214B5B6803F4C9
:101C84008001E26991422CD103F03F02216A8A4229
:101C940029D1616A47F6C0721A40B2EB811F24D180
:101CA40003F44031A26A5208013AB1EB024F1ED14B
:101CB40003F07062E16AB2EB016F1AD103F0E04302
:101CC400226BB3EB027F16D1002006E0012070479F
:101CD400012002E0012000E0002002B070BD0120DC
:101CE400FBE70120F9E70120F7E70120F5E70120F0
:101CF400F3E70120F1E70120EFE700BF00700040A7
:101D0400003802400000474200230F2B00F2E3801A
:101D140070B582B065E085684FEA430E032404FA87
:101D24000EF425EA0405CC6804FA0EF42C4384600E
:101D3400446824EA02044A68C2F300129A40224327
:101D440042605CE0DC08083450F8242003F0070506
:101D5400AD004FF00F0E0EFA05FE22EA0E0E0A69D0
:101D6400AA4042EA0E0240F824205CE0062200E089
:101D7400002202FA0EF22A430234574D45F8242079
:101D8400564A94686FEA0C0224EA0C054E6816F46D
:101D9400801F01D04CEA0405504CA560E46802EAB7
:101DA40004054E6816F4001F01D04CEA04054B4CA0
:101DB400E560646802EA04054E6816F4003F01D049
:101DC4004CEA0405454C6560246822404D6815F4CE
:101DD400803F01D04CEA0402404C226001330F2BB7
:101DE40077D801229A400C6804EA020C32EA04040F
:101DF400F4D14C6804F00304013C012C8BD94A68EB
:101E040002F00302032A09D0C4685D000322AA4039
:101E140024EA02048A68AA402243C2604A6802F0A3
:101E24000302022A8ED004684FEA430E032202FA08
:101E34000EF224EA02044A6802F0030202FA0EF2E5
:101E4400224302604A6812F4403FC7D00022019244
:101E5400234A546C44F480445464526C02F4804227
:101E64000192019A9C08A51C1B4A52F8255003F0C4
:101E7400030E4FEA8E0E0F2202FA0EF225EA020535
:101E8400184A90423FF474AF02F58062904216D033
:101E940002F58062904214D002F58062904212D022
:101EA40002F58062904210D002F5806290420ED01A
:101EB40002F5806290423FF459AF072259E70122AC
:101EC40057E7022255E7032253E7042251E705228C
:101ED4004FE702B070BD704700380140003C01403C
:101EE40000380240000002400AB1816170470904D1
:101EF400816170477047000008B5054B5B69034278
:101F040000D108BD024B5861FFF7F4FFF9E700BFA9
:101F1400003C014030B405682C6824F480242C6013
:101F2400046863608368402B05D003689960036884
:101F3400DA6030BC704703689A600368D960F8E7D8
:101F440010B40368D9B210390A4AA2FB014212093B
:101F5400094CA25CC2655F2907D96FF309030433F6
:101F64008365806D5DF8044B70476FF309038365E7
:101F7400F7E700BFABAAAAAA1C260008836A8269F5
:101F840092B9012B0AD0022B02D00BB1002070476A
:101F9400C36A13F0807F28D100207047C36AB3F16D
:101FA400C07F24D000207047B2F5005F09D0022B17
:101FB40025D9032B25D1C36A13F0807F23D10020B8
:101FC4007047032B03D8DFE803F01404140A00203D
:101FD4007047C36A13F0807F0DD100207047C36A35
:101FE400B3F1C07F09D00020704701207047012061
:101FF400704701207047012070470120704701207D
:1020040070470020704701207047000070B50446F7
:1020140000F060FA002C5BD00546022384F83530CA
:10202400002384F834302268136823F0010313601A
:1020340023681A6812F0010F0AD000F04BFA431B10
:10204400052BF5D920236365032084F8350070BD82
:102054001A68204911406268A0680243E06802439C
:102064002069024360690243A0690243E0690243B4
:10207400206A02430A43616A04291ED01A60266852
:10208400756925F00705636A1D43042B07D1A36A0C
:102094001D43E36A1BB12046FFF770FF90B97561D9
:1020A4002046FFF74DFFE26D3F23934083600020FD
:1020B4006065012384F83530C9E7E16A206B014388
:1020C4000A43DBE740236365012084F83500BEE75B
:1020D4000120BCE73F8010F038B50446856D90F8C8
:1020E400340001282BD0012084F8340094F8350002
:1020F400C0B2012804D0002384F83430022038BD53
:10210400022084F83500002060652046FFF702FFB6
:10211400E26D3F239340AB602268136843F01603DB
:102124001360236C23B12268136843F0080313601F
:102134002268136843F0010313600020DFE70220E4
:10214400DDE790F83530DBB2022B03D08023436502
:1021540001207047052380F835300268136823F0A6
:102164000103136000207047F0B583B004460023D8
:102174000193724B1D68724BA3FB0535AD0A876D45
:102184003E68C26D08239340334210D003681A6836
:1021940012F0040F0BD01A6822F004021A60C26D08
:1021A40008239340BB60436D43F001034365E26D34
:1021B40001239340334209D02268526912F0800F00
:1021C40004D0BB60636D43F002036365E26D0423D6
:1021D4009340334209D02268126812F0020F04D0EF
:1021E400BB60636D43F004036365E26D10239340A9
:1021F400334224D02268126812F0080F1FD0BB604B
:1022040023681A6812F4802F0DD01B6813F4002F72
:1022140004D1236C9BB12046984710E0A36C73B1A2
:10222400204698470BE01A6812F4807F03D11A689D
:1022340022F008021A60236C0BB120469847E26D25
:1022440020239340334255D02268126812F0100FB5
:1022540050D0BB6094F83530DBB2052B0ED0236828
:102264001A6812F4802F33D01B6813F4002F2AD17C
:10227400636C002B3ED0204698473BE022681368ED
:1022840023F0160313602268536923F0800353611B
:10229400236CA3B12268136823F008031360E26D72
:1022A4003F239340BB60012384F83530002384F836
:1022B4003430236D002B3FD0204698473CE0A36C7C
:1022C400002BE7D1EBE7E36BA3B12046984711E07D
:1022D4001A6812F4807F09D11A6822F010021A6079
:1022E400012384F83530002384F83430E36B0BB1D8
:1022F40020469847636DFBB1636D13F0010F17D04F
:10230400052384F835302268136823F00103136031
:10231400019B01330193AB4204D823681B6813F07B
:10232400010FF5D1012384F83530002384F83430CB
:10233400E36C0BB12046984703B0F0BD3C86012006
:10234400B5814E1B002807DB00F01F024009012362
:102354009340024A42F82030704700BF00E100E099
:10236400002808DB0901C9B200F1604000F56140B2
:1023740080F80013704700F00F000901C9B2014B47
:102384001954704714ED00E000B500F00700C0F1E7
:10239400070CBCF1040F28BF4FF0040C031D062BDF
:1023A4000FD9C31E4FF0FF3E0EFA0CF021EA0001D4
:1023B40099400EFA03FE22EA0E0241EA02005DF899
:1023C40004FB0023EEE70000074AD36823F4E0632C
:1023D4001B041B0C000200F4E060034343F0BF63E2
:1023E40043F40033D360704700ED00E010B50446B9
:1023F400054BD868C0F30220FFF7C6FF014620460C
:10240400FFF7AEFF10BD00BF00ED00E008B5FFF719
:1024140099FF08BD0138B0F1807F0BD24FF0E02363
:102424005861054AF02182F82310002098610722A0
:102434001A6170470120704700ED00E010B50446B2
:102444000E4B1A784FF47A73B3FBF2F30C4A10680C
:10245400B0FBF3F0FFF7DEFF68B90F2C01D90120C0
:102464000AE0002221464FF0FF30FFF7BFFF054B83
:102474001C60002000E0012010BD00BF3486012054
:102484003C8601203886012008B50B4B1A6842F4BB
:1024940000721A601A6842F480621A601A6842F480
:1024A40080721A600320FFF78FFF0F20FFF7C6FF2B
:1024B400FEF704FC002008BD003C0240034A1168FA
:1024C400034B1B780B441360704700BF58870120EF
:1024D40034860120014B1868704700BF58870120DB
:1024E40038B50446FFF7F6FF0546B4F1FF3F02D0C6
:1024F400044B1B781C44FFF7EDFF401BA042FAD3AA
:1025040038BD00BF34860120034AD2F8883043F432
:102514007003C2F88830704700ED00E0DFF834D073
:10252400FFF7F2FF0C480D490D4A002302E0D4588E
:10253400C4500433C4188C42F9D30A4A0A4C002309
:1025440001E013600432A242FBD300F019F8FEF755
:1025540021FA70470000022000000020408601207C
:1025640044260008408601205C870120FEE70244DF
:102574000346934200D1704703F8011BF9E70000BA
:1025840070B50D4D0D4C641BA4100026A64209D154
:102594000B4D0C4C00F018F8641BA4100026A64246
:1025A40005D170BD55F8043B98470136EEE755F860
:1025B400043B98470136F2E73C2600083C26000815
:1025C4003C26000840260008F8B500BFF8BC08BC4B
:1025D4009E467047F8B500BFF8BC08BC9E467047DD
:1025E40053696E6500000000536177746F6F7468FF
:1025F40000000000547269616E676C6500000000A1
:102604005069616E6F000000477569746172000063
:102614004472756D000000000006101600061016C6
:10262400000000000000000001020304060708097E
:0826340000DCFF7F0100000043
:04263C00E9010008A8
:04264000C5010008C8
:102644003C040040E4250008EC250008F8250008B7
:10265400042600080C2600081426000834840120EF
:102664003482012034800120340001203480002091
:1026740034000020A8080000AA080000AA080000EE
:10268400A9080000AB080000B0080000B30800006F
:10269400B5080000B7080000B9080000B908000038
:1026A400BE080000C4080000C1080000BB08000008
:1026B400B4080000B2080000B6080000BC0800001E
:1026C400BF080000C6080000CE080000CD080000C6
:1026D400C7080000C5080000CA080000D0080000B0
:1026E400CD080000C7080000C6080000C9080000A3
:1026F400CA080000C9080000C3080000C10800009F
:10270400C8080000D0080000D5080000D708000061
:10271400D6080000D3080000D6080000D608000040
:10272400CD080000C6080000C9080000CD0800005C
:10273400CD080000CD080000CC080000CC08000043
:10274400CE080000D0080000CE080000C808000031
:10275400C3080000C1080000C0080000C108000050
:10276400CB080000D4080000D6080000D5080000FB
:10277400CE080000C7080000C4080000C10800001B
:10278400C2080000C9080000CE080000CD080000FF
:10279400CC080000C9080000C8080000CA080000EE
:1027A400C4080000C0080000C5080000C9080000F3
:1027B400C9080000C9080000C6080000C0080000DD
:1027C400BB080000BA080000BE080000C8080000EA
:1027D400CA080000C4080000BF080000BD080000CB
:1027E400BC080000BE080000C0080000BA080000D1
:1027F400B1080000B1080000B8080000BC080000DF
:10280400BB080000B5080000B4080000B9080000C7
:10281400BE080000C0080000C3080000C208000091
:10282400BC080000B6080000B0080000AD080000B5
:10283400AF080000B3080000B8080000BC0800009E
:10284400BC080000BA080000B7080000B608000081
:10285400B7080000B3080000AD080000AD08000090
:10286400B2080000B3080000B2080000B30800007A
:10287400B4080000B0080000AC080000AA0800007A
:10288400A7080000A7080000A7080000A30800008C
:10289400A00800009D0800009808000097080000A8
:1028A4009C080000A3080000A6080000A808000077
:1028B400AC080000AD080000AB080000A708000049
:1028C400A20800009C08000095080000950800007C
:1028D400A0080000AA080000AA080000A50800003B
:1028E400A20800009F0800009D0800009D08000049
:1028F400980800008E0800008B0800008E08000075
:1029040092080000960800009A0800009D08000044
:102914009E0800009C08000097080000940800002E
:102924009408000095080000920800008A0800003E
:102934008608000085080000840800008408000060
:102944007E080000710800006F080000780800008D
:102954007F0800007F0800007C0800007A0800005F
:10296400770800007308000074080000770800006E
:1029740070080000660800006A080000770800007C
:102984007D0800007B08000078080000760800003D
:1029940072080000700800006C0800006408000061
:1029A4005E0800005F080000620800006408000080
:1029B400680800006C080000690800006508000051
:1029C4006608000063080000590800005008000071
:1029D40050080000550800005A0800005E08000076
:1029E4005C08000051080000480800004808000086
:1029F4004E080000510800004B0800003F0800008A
:102A0400390800003A0800003708000032080000C6
:102A140033080000340800003308000031080000C7
:102A24002C080000290800002A08000028080000DB
:102A34002008000019080000190800001C08000004
:102A44001C080000190800001808000016080000FF
:102A540014080000180800001F08000022080000E5
:102A64001E08000017080000130800000F080000EB
:102A74000C0800000D0800001108000011080000F7
:102A84000E0800000B0800000608000004080000FF
:102A94000308000001080000020800000408000008
:102AA400040800000408000000080000F707000004
:102AB400F2070000F4070000F7070000F807000021
:102AC400F9070000F8070000F6070000F30700000C
:102AD400F0070000E9070000DE070000D907000046
:102AE400DC070000E1070000E4070000E60700003F
:102AF400E5070000E1070000DF070000E107000030
:102B0400DF070000D8070000D4070000D407000046
:102B1400D2070000CC070000C7070000C40700006C
:102B2400C1070000C0070000C4070000C807000078
:102B3400C6070000C1070000BD070000BB07000076
:102B4400BA070000BA070000B8070000B707000082
:102B5400B9070000BA070000B9070000BB0700006E
:102B6400BC070000B9070000B7070000B807000061
:102B7400B8070000B9070000BB070000BB0700004E
:102B8400BC070000BC070000B9070000B50700003F
:102B9400B0070000AA070000A8070000A90700006A
:102BA400A5070000A1070000A1070000A00700007E
:102BB4009D0700009D0700009D0700009E07000080
:102BC4009D0700009B07000099070000970700007D
:102BD40095070000990700009C0700009807000073
:102BE400920700008F0700008E0700009107000085
:102BF4009507000095070000910700008E0700006C
:102C04008F07000092070000920700008E07000063
:102C14008B0700008907000084070000800700007C
:102C2400850700008A070000880700008707000066
:102C34008A0700008A070000840700007E0700005E
:102C44007C07000080070000830700008207000063
:102C54007E0700007D070000800700008407000055
:102C6400810700007E070000810700008107000043
:102C74007D07000078070000740700007307000058
:102C84007707000078070000760700007707000048
:102C94007807000074070000700700007007000048
:102CA4007107000070070000700700007307000040
:102CB400770700007807000075070000710700001F
:102CC4006D0700006A07000068070000670700003E
:102CD4006407000063070000630700005F0700004B
:102CE4005B0700005D070000600700005F0700004D
:102CF4005C0700005D070000600700005F0700003C
:102D04005A070000540700004F0700005007000056
:102D14005407000054070000500700004F0700004C
:102D24005207000053070000540700005507000035
:102D3400590700005F0700006407000066070000F1
:102D44006207000058070000510700005107000007
:102D5400560700005B0700005D0700005F070000E6
:102D64005E07000059070000530700004F070000EA
:102D740050070000570700006107000060070000CB
:102D84005907000055070000510700004B070000D9
:102D94004B070000510700005307000054070000D0
:102DA4005507000054070000500700004C070000BE
:102DB40048070000490700004A07000046070000D2
:102DC4004407000045070000470700004E070000C5
:102DD4005607000058070000530700004F07000083
:102DE4004C0700004A0700004A0700004C07000097
:102DF4004F07000053070000590700006107000057
:102E04005F0700005A0700005B0700005B07000033
:102E14005A0700005B0700005D0700005F07000021
:102E240062070000610700005F07000061070000FF
:102E340065070000680700006B0700006A070000D0
:102E44006507000062070000600700005F070000DC
:102E54005E0700005D0700005907000057070000E7
:102E6400580700005A0700005807000056070000E2
:102E740055070000550700005407000053070000E1
:102E840052070000520700005407000059070000D1
:102E94005C0700005D070000600700006807000091
:102EA4006E0700006C070000670700006807000059
:102EB4006D07000071070000760700007B07000023
:102EC4007C0700007B0700007907000078070000FA
:102ED400790700007B0700007E07000081070000DF
:102EE4008407000087070000850700007D070000B5
:102EF4007C070000830700008A0700008C0700009D
:102F04008B07000087070000870700008B0700007D
:102F14009107000092070000940700009707000043
:102F24009607000092070000910700009307000035
:102F3400970700009E070000A2070000A3070000F7
:102F4400A6070000AB070000AC070000AA070000BA
:102F5400AA070000AD070000AE070000B00700009C
:102F6400B4070000B6070000B9070000BC07000062
:102F7400BB070000BB070000BE070000C10700003C
:102F8400C3070000C6070000C9070000C907000006
:102F9400C9070000CB070000CE070000D0070000DF
:102FA400D5070000DD070000E3070000E407000088
:102FB400E1070000DD070000DC070000E007000077
:102FC400EB070000F5070000FA070000FC0700000B
:102FD400FC070000FA070000FB07000001080000DE
:102FE4000508000007080000080800000A0800009F
:102FF4000C0800000908000006080000080800008A
:103004000D08000013080000190800001C08000047
:103014001C0800001C0800001C080000190800001F
:103024001C080000210800002408000027080000F4
:1030340030080000380800003B0800003C0800008D
:103044003B0800003A0800003E0800004508000064
:10305400490800004C0800004F0800005108000017
:1030640052080000570800005E08000061080000D4
:10307400640800006B0800006F0800006D08000081
:103084006D08000072080000730800007208000058
:10309400740800007B08000081080000810800001B
:1030A4007F080000800800008608000088080000EF
:1030B4008708000087080000880800008A080000CC
:1030C4008E08000090080000920800009808000094
:1030D4009B08000097080000920800009308000075
:1030E400970800009B0800009D0800009A08000053
:1030F40096080000980800009E080000A40800003C
:10310400AA080000AF080000B1080000B1080000E0
:10311400B0080000B3080000B7080000B8080000B9
:10312400BA080000BC080000B9080000B808000094
:10313400BF080000C3080000C3080000C208000064
:10314400C3080000C4080000C9080000CF0800003C
:10315400D2080000D1080000D4080000DB080000F9
:10316400DC080000DB080000DD080000DF080000C8
:10317400DF080000E3080000E6080000E60800009D
:10318400E7080000E9080000E9080000EB08000077
:10319400EC080000E9080000E5080000E70800006A
:1031A400ED080000EC080000EE080000F408000040
:1031B400F2080000EB080000EB080000EA08000039
:1031C400E2080000E0080000E2080000DD0800005A
:1031D400D8080000DA080000E1080000EA0800004E
:1031E400F3080000F4080000F3080000F5080000EC
:1031F400F4080000ED080000E9080000E8080000F9
:10320400EA080000F2080000FC080000FF080000C3
:10321400FC080000F8080000F5080000F3080000AE
:10322400F3080000F8080000FC080000FA08000099
:10323400F4080000F3080000F5080000F908000095
:10324400FD080000FF080000FE080000010900005E
:1032540002090000FD080000F6080000F60800005E
:10326400F8080000F8080000FB080000020900004C
:10327400060900000809000007090000020900000F
:10328400FC080000F9080000FA080000FA08000031
:10329400F7080000F4080000F4080000F408000037
:1032A400F2080000F3080000F7080000F708000027
:1032B400F8080000FB080000FA080000F508000008
:1032C400F2080000F1080000F0080000EE08000019
:1032D400EF080000F2080000F3080000F308000003
:1032E400F2080000EB080000E3080000E108000019
:1032F400E5080000EA080000EE080000EE080000FF
:10330400E7080000DF080000DB080000DA0800001E
:10331400DF080000E3080000E0080000E008000007
:10332400E5080000E4080000DE080000DC080000F6
:10333400DA080000D8080000D8080000D50800000A
:10334400CF080000D0080000D2080000D108000017
:10335400D6080000DA080000D3080000CD080000F9
:10336400CC080000C9080000C7080000C908000014
:10337400C8080000C1080000BC080000BC08000028
:10338400C1080000C9080000CF080000CE080000F2
:10339400C8080000C0080000BC080000BD08000008
:1033A400C1080000C1080000BE080000BC080000FD
:1033B400BE080000C0080000BE080000BA080000F3
:1033C400BB080000BD080000BD080000BD080000E7
:1033D400B9080000B1080000AD080000AE08000004
:1033E400B1080000B4080000B2080000AB080000F7
:1033F400A7080000A9080000A9080000A60800000A
:10340400A7080000A8080000A20800009A0800000D
:1034140098080000990800009A0800009908000024
:103424009808000099080000990800009808000016
:1034340098080000960800008F0800008A08000021
:1034440088080000880800008E0800009708000023
:103454009908000097080000940800008E080000F6
:10346400870800008308000080080000810800002D
:103474008408000086080000870800008708000010
:1034840085080000810800007C080000770800001F
:10349400720800007208000073080000720800003F
:1034A4006D080000690800006B0800006E08000049
:1034B4006F0800006C0800006C0800007008000031
:1034C4007008000069080000600800005F08000040
:1034D40064080000690800006D0800006C08000022
:1034E40066080000610800005B0800005408000042
:1034F400500800004E0800004D0800004F0800006E
:10350400500800004E0800004B0800004708000067
:103514004308000040080000400800003E08000086
:103524003A080000360800003208000033080000A2
:1035340034080000300800002E0800002F080000A6
:103544002F08000030080000300800002D0800009B
:1035540027080000220800002308000026080000B5
:10356400230800001E0800001E08000020080000B8
:1035740023080000250800002008000018080000A7
:10358400140800000F0800000A0800000D080000DD
:103594001508000017080000130800000C080000BC
:1035A4000408000001080000FF070000FB070000FA
:1035B400FA070000FC070000F9070000F407000008
:1035C400F1070000EF070000E8070000E307000030
:1035D400E4070000E3070000E1070000DF07000044
:1035E400DE070000DB070000D5070000CF0700005E
:1035F400CD070000CE070000CF070000CB07000076
:10360400C5070000C2070000C4070000C607000089
:10361400C2070000BC070000B6070000B3070000A3
:10362400B6070000BA070000B9070000B907000098
:10363400BB070000B8070000B1070000AA0700009C
:10364400A7070000A6070000A7070000AB070000BB
:10365400AA070000A4070000A4070000A3070000B5
:103664009C0700009A0700009D0700009C070000CB
:103674009A0700009A0700009907000097070000C6
:1036840098070000980700009407000092070000C4
:1036940096070000970700009307000092070000B8
:1036A4008E070000850700007E0700007C070000ED
:1036B4007C0700007F0700007F0700007A070000F6
:1036C40077070000760700007707000077070000FF
:1036D400720700006D0700006B0700006907000017
:1036E400650700006607000069070000690700001D
:1036F40067070000630700005D0700005C07000027
:103704005C07000059070000570700005B07000032
:103714005E07000059070000580700005E0700001C
:103724005E0700005B0700005A0700005507000011
:103734004E0700004E07000052070000510700002A
:1037440050070000500700004C0700004707000026
:103754004507000046070000450700004407000035
:10376400410700004007000043070000480700002D
:103774004907000048070000440700003C07000018
:103784003507000035070000370700003507000043
:103794003607000035070000300700002F0700003F
:1037A40034070000320700002B0700002B0700003D
:1037B400300700002E0700002C0700002E07000031
:1037C4002B07000026070000270700002807000039
:1037D4002507000024070000250700002307000038
:1037E40022070000210700001E0700001B0700003D
:1037F4001B0700001D0700001E0700001E07000035
:103804002007000025070000270700002407000008
:10381400200700001D0700001B0700001E07000012
:1038240021070000210700002107000024070000F1
:1038340025070000250700002507000025070000D4
:10384400240700001F0700001807000014070000E9
:1038540015070000180700001807000015070000EE
:10386400100700000F0700001007000012070000F7
:1038740014070000150700001507000013070000D7
:10388400120700000F0700000C0700000D070000DE
:1038940010070000100700000F0700000E070000CB
:1038A4000B070000080700000707000007070000D7
:1038B40007070000060700000407000006070000D1
:1038C4000A07000009070000090700000B070000B1
:1038D40007070000050700000B0700000E070000A3
:1038E4001007000013070000110700000A0700007A
:1038F4000807000008070000080700000C07000084
:1039040010070000100700000E0700000D0700005C
:103914000B0700000A0700000A0700000A0700005E
:103924000A0700000A07000006070000020700005B
:10393400050700000B0700000B0700000907000043
:103944000807000006070000030700000407000042
:10395400080700000A070000090700000807000024
:103964000707000007070000090700000A07000016
:103974000A07000007070000030700000107000012
:1039840003070000080700000807000008070000FC
:103994000B0700000D0700000A07000004070000E1
:1039A40003070000080700000B07000008070000D9
:1039B400080700000C0700000C0700000B070000BC
:1039C4000D0700000A0700000407000008070000B4
:1039D4000D0700000E070000100700001307000089
:1039E400180700001B0700001C0700001B0700004D
:1039F4001A07000018070000150700001807000048
:103A04001F070000200700001B0700001807000024
:103A1400190700001B0700001D0700001C07000019
:103A24001B0700001D0700002007000020070000FE
:103A340022070000230700002207000026070000D9
:103A44002C0700002E0700002E070000300700009E
:103A54002F0700002E070000310700003207000086
:103A64002F0700002C0700002F0700003407000078
:103A74003A07000040070000430700004207000027
:103A84003F07000040070000430700004207000012
:103A940040070000430700004807000049070000F2
:103AA4004D070000530700005507000054070000AD
:103AB400520700004E0700004F07000053070000A4
:103AC4004D0700004A070000540700005A07000091
:103AD4005807000057070000580700005807000067
:103AE4005C07000060070000600700006207000038
:103AF4006507000063070000620700006607000016
:103B040069070000690700006C0700006D070000EA
:103B14006B0700006B0700006E07000070070000D1
:103B24007107000072070000700700006F070000B3
:103B340071070000760700007B0700007D07000086
:103B44007E0700008107000084070000870700004B
:103B54008A07000088070000860700008607000027
:103B6400870700008B0700009307000097070000F9
:103B740096070000980700009807000096070000C9
:103B840097070000970700009407000095070000BE
:103B94009A0700009B070000990700009B0700009C
:103BA4009E0700009F0700009E0700009F0700007B
:103BB400A2070000A5070000A6070000A607000052
:103BC400A7070000A9070000AB070000AB0700002F
:103BD400A6070000A4070000A9070000AF07000023
:103BE400B3070000B6070000B8070000B9070000DB
:103BF400BC070000BD070000BA070000BD070000B5
:103C0400C2070000C3070000C5070000CB0700007F
:103C1400D1070000D5070000D5070000D507000034
:103C2400D7070000DB070000DF070000E007000003
:103C3400DE070000E1070000E6070000E8070000D7
:103C4400E9070000E8070000E7070000EA070000B2
:103C5400EF070000F2070000F6070000F807000075
:103C6400F7070000F5070000F7070000F907000058
:103C7400F8070000F5070000F6070000F907000048
:103C8400FD07000003080000070800000708000003
:103C9400080800000B0800000708000006080000E0
:103CA4000A0800000A080000080800000E080000C6
:103CB40015080000160800001A0800001F0800007C
:103CC4001E0800001C0800001F0800002008000057
:103CD400200800002108000020080000200800003F
:103CE40024080000290800002C0800002E08000009
:103CF4002D0800002D0800003108000034080000E1
:103D040036080000390800003808000035080000B3
:103D1400380800003E08000044080000480800007D
:103D24004C0800004E0800004F0800005008000036
:103D3400500800004F0800004F0800005008000021
:103D440053080000560800005A08000058080000F4
:103D540054080000580800005D0800005D080000D9
:103D640062080000680800006108000059080000AB
:103D74005C08000061080000630800006608000099
:103D84006A0800006D080000710800007308000054
:103D94006F0800006C0800006D0800006E08000049
:103DA400740800007C0800007D0800007908000009
:103DB4007A0800007D0800007E08000082080000E8
:103DC40086080000850800008608000086080000B8
:103DD40082080000830800008C0800008F0800009F
:103DE4008F08000090080000900800008E08000072
:103DF4008F08000090080000910800009708000058
:103E04009F080000A3080000A5080000A408000003
:103E1400A10800009E0800009F080000A2080000FE
:103E2400A10800009E080000A1080000A2080000EC
:103E3400A2080000A8080000B0080000B1080000B3
:103E4400B2080000B5080000B3080000B108000083
:103E5400B1080000B2080000B1080000B108000079
:103E6400B1080000B1080000B1080000B00800006B
:103E7400B1080000B4080000B7080000BB08000047
:103E8400BB080000B8080000B8080000B80800002B
:103E9400BA080000BE080000BF080000BE08000009
:103EA400C3080000CB080000CD080000CA080000C9
:103EB400C5080000C0080000BC080000BE080000DF
:103EC400C7080000CD080000CD080000CD080000A0
:103ED400CF080000D2080000D3080000D00800007A
:103EE400CC080000CA080000C9080000CA08000085
:103EF400CC080000CF080000D0080000D108000062
:103F0400CF080000CE080000D0080000D30800004D
:103F1400D7080000DB080000DC080000DB08000014
:103F2400D9080000D6080000D5080000D608000013
:103F3400D6080000D8080000DA080000DA080000FB
:103F4400D9080000D6080000D4080000D4080000F6
:103F5400D6080000D9080000DB080000DB080000D8
:103F6400DD080000DF080000DE080000DD080000B6
:103F7400DA080000D7080000D7080000D8080000BD
:103F8400D9080000DA080000DF080000E308000098
:103F9400E7080000E9080000EA080000EA08000059
:103FA400E8080000E5080000E0080000DC08000064
:103FB400DC080000E1080000E6080000EA08000050
:103FC400EC080000EB080000E9080000E608000027
:103FD400E3080000DD080000DA080000DF08000044
:103FE400E7080000E7080000E7080000E90800000F
:103FF400E8080000E7080000E9080000EA080000FB
:10400400EA080000E7080000E0080000DD080000FE
:10401400E1080000E6080000E8080000E9080000E4
:10402400EB080000EB080000E8080000E4080000CA
:10403400E0080000DC080000DC080000E2080000E2
:10404400E6080000E5080000E5080000E5080000B7
:10405400E3080000E2080000E2080000E2080000B3
:10406400E1080000E1080000E1080000E2080000A7
:10407400E1080000E2080000E1080000DD0800009B
:10408400DC080000DF080000E0080000E108000090
:10409400E3080000DE080000D6080000D408000091
:1040A400D6080000D7080000DA080000DA0800008B
:1040B400D5080000CF080000D1080000D308000094
:1040C400CE080000CC080000D0080000D208000090
:1040D400D2080000D3080000D1080000CE08000078
:1040E400D2080000D5080000D0080000CC08000069
:1040F400CC080000CB080000C8080000C708000076
:10410400C6080000C8080000CC080000CC08000065
:10411400CB080000CC080000CD080000CB0800004C
:10412400C5080000BC080000B7080000B90800007A
:10413400C0080000C5080000C4080000BD08000055
:10414400B7080000B4080000B2080000B30800007B
:10415400B4080000B6080000B9080000BB0800005D
:10416400B7080000B5080000B2080000AD08000060
:10417400AB080000AC080000AE080000AD08000069
:10418400A9080000A5080000A3080000A508000075
:10419400A7080000A7080000A3080000A208000068
:1041A400A4080000A30800009F0800009C08000069
:1041B4009708000095080000960800009408000085
:1041C4008F08000090080000950800009408000083
:1041D4009108000091080000900800008E0800007B
:1041E4009208000091080000890800008608000079
:1041F4008908000089080000890800008B08000075
:104204008D0800008A080000870800008608000066
:10421400840800007E0800007C0800007F0800007D
:104224007E0800007A0800007C0800008008000076
:104234007F0800007D0800007B080000780800006B
:104244007608000076080000760800007508000073
:1042540074080000710800006E0800006D0800007A
:104264006B0800006908000066080000620800008E
:104274005F0800005F080000600800005B080000A1
:1042840055080000550800005408000052080000BA
:1042940054080000550800004F08000048080000BA
:1042A40043080000400800004008000042080000E5
:1042B4004208000040080000400800003E080000DA
:1042C40039080000360800003508000034080000F2
:1042D4003708000039080000390800003A080000D7
:1042E40039080000330800003008000033080000DB
:1042F400310800002C0800002E08000033080000DC
:104304002F0800002A0800002B0800002E080000D7
:104314002B080000280800002808000025080000D9
:104324002308000023080000210800001D080000E5
:104334001A0800001A0800001C0800001C080000ED
:104344001A080000190800001808000014080000EA
:1043540012080000110800000F0800000E080000F9
:104364000F0800000D0800000C0800000A080000F7
:1043740008080000060800000608000007080000FE
:1043840009080000090800000708000003080000ED
:1043940000080000FF070000FF07000000080000FD
:1043A40003080000080800000808000005080000D1
:1043B400040800000408000000080000FB070000D7
:1043C400FA070000FA070000FA070000FC070000E3
:1043D400FD070000FA070000F9070000F8070000D5
:1043E400F7070000F9070000F8070000F3070000D2
:1043F400F1070000EE070000ED070000EF070000E2
:10440400F2070000F1070000EF070000EC070000CE
:10441400EA070000EC070000EB070000E3070000D8
:10442400DC070000DD070000E0070000DF070000F4
:10443400E0070000E3070000E2070000E0070000D7
:10444400E0070000DD070000D7070000DA070000DE
:10445400DD070000D9070000D7070000D9070000D6
:10446400D5070000D0070000D0070000D1070000E6
:10447400CE070000CE070000D4070000D3070000D9
:10448400CA070000C4070000C5070000C5070000F4
:10449400C6070000CA070000CA070000C8070000DA
:1044A400C8070000C8070000C4070000BF070000D9
:1044B400BE070000BD070000BB070000BA070000EC
:1044C400BA070000BB070000BB070000B8070000E4
:1044D400B6070000B3070000B0070000B0070000F3
:1044E400B3070000B2070000AF070000AE070000EA
:1044F400AD070000AD070000B0070000AE070000E4
:10450400AD070000AC070000A50700009F070000EE
:10451400A5070000AA070000A9070000AA070000D9
:10452400AB070000A7070000A6070000A6070000CD
:10453400A4070000A3070000A4070000A5070000CB
:10454400A5070000A3070000A00700009D070000C6
:104554009E070000A2070000A20700009E070000BB
:104564009A070000960700009107000090070000DA
:1045740094070000950700009507000096070000C7
:1045840099070000990700009507000091070000B3
:104594008F0700008E0700008B07000088070000CB
:1045A40086070000840700008507000086070000D6
:1045B40088070000870700008407000082070000C6
:1045C40083070000820700007E07000079070000CF
:1045D4007A0700007B0700007B0700007B070000D0
:1045E4007D070000800700008107000080070000AD
:1045F400770700006E0700006F07000075070000D2
:10460400760700007A070000800700007E0700009C
:1046140077070000710700006C07000069070000BD
:104624006C070000710700007507000077070000A1
:10463400720700006B0700006B0700006B070000A7
:104644006C0700006B0700006907000069070000A1
:104654006A07000069070000680700006707000098
:10466400610700005A0700005C07000060070000B3
:104674006107000063070000640700005E07000094
:1046840058070000590700005A0700005A070000A5
:104694005B0700005907000054070000530700009F
:1046A4005607000056070000570700005707000090
:1046B400500700004C0700004D0700004B070000A6
:1046C40047070000490700004E0700004E0700009E
:1046D4004F070000510700004D0700004707000086
:1046E40045070000430700004107000041070000A0
:1046F4004207000043070000470700004807000086
:104704004707000046070000420700003D0700007D
:104714003E07000042070000410700003F07000079
:10472400400700003F0700003E0700003D0700006F
:104734003D0700003B0700003B0700003D07000069
:104744004007000042070000410700003D07000049
:104754003A0700003C0700003E0700003E07000047
:104764004007000042070000410700003E07000028
:104774003A070000390700003A0700003B07000031
:104784003C0700003F070000430700004607000005
:1047940044070000410700003F07000040070000F5
:1047A40041070000410700003F0700003D070000EB
:1047B40040070000430700004407000044070000CE
:1047C40043070000400700003F0700003F070000C8
:1047D40041070000430700004407000047070000AA
:1047E4004B0700004B0700004A0700004B0700007E
:1047F4004D0700004D0700004D0700004E07000064
:104804004F0700004E0700004B0700004A07000056
:104814004B0700004B070000490700004A0700004F
:104824004C0700004C0700004B0700004B0700003A
:104834004C0700004E07000051070000530700001A
:1048440052070000510700005307000056070000FC
:1048540057070000580700005707000055070000DD
:104864005507000057070000590700005B070000C8
:104874005D0700005D0700005C0700005B070000A7
:104884005A0700005D07000062070000650700008A
:10489400690700006B070000690700006807000053
:1048A400690700006A0700006A0700006A07000041
:1048B4006C0700006F070000720700007407000017
:1048C40074070000720700007207000074070000FC
:1048D40076070000780700007A0700007B070000D5
:1048E4007F070000830700008307000082070000A1
:1048F4008107000080070000820700008307000092
:104904008307000084070000850700008607000075
:104914008A0700009007000091070000920700003A
:10492400910700008F0700008E0700009107000028
:1049340092070000970700009F070000A1070000EE
:104944009C0700009B0700009B0700009D070000D8
:10495400A1070000A3070000A3070000A8070000A8
:10496400AE070000B1070000B2070000B007000066
:10497400AF070000B0070000B1070000B407000053
:10498400B8070000BB070000BE070000BF07000017
:10499400BE070000BB070000BB070000BE07000005
:1049A400C2070000C8070000CC070000C9070000C8
:1049B400C7070000C6070000C5070000C5070000C0
:1049C400CB070000D2070000D4070000D607000080
:1049D400D9070000D8070000D5070000D70700005A
:1049E400DA070000DA070000DB070000DD0700003B
:1049F400DC070000DD070000E2070000E407000018
:104A0400E3070000E4070000E6070000E4070000F5
:104A1400E2070000E3070000E5070000E5070000E7
:104A2400E6070000E9070000EB070000EE070000BE
:104A3400EF070000EF070000EE070000EE0700009C
:104A4400F0070000F4070000F4070000F00700007E
:104A5400F0070000F5070000F9070000FB0700005D
:104A6400FB070000FA070000FA070000FC0700003B
:104A7400FD070000FD070000FD070000FF07000020
:104A840001080000050800000808000008080000EC
:104A9400080800000B0800000F08000010080000C0
:104AA400100800001208000013080000130800009A
:104AB40014080000170800001B0800001E0800006E
:104AC4001F0800001F08000022080000230800003F
:104AD4002208000023080000250800002808000020
:104AE4002D0800002F0800003008000031080000E5
:104AF400300800002E0800002E0800002F080000D7
:104B040032080000350800003508000036080000AF
:104B14003608000036080000390800003C08000090
:104B24003D0800003E0800003E0800003B0800006D
:104B34003B0800003F080000410800004208000054
:104B4400450800004708000045080000460800002A
:104B54004708000046080000470800004808000015
:104B64004808000048080000490800004B080000FD
:104B74004D080000510800005208000051080000D0
:104B840052080000520800004F0800004D080000C1
:104B94004F08000054080000580800005A0800009C
:104BA4005A08000058080000560800005508000084
:104BB400560800005A0800005C0800005B0800006A
:104BC4005D0800005F080000610800006208000042
:104BD4006408000065080000630800006208000023
:104BE4006408000064080000630800006408000012
:104BF40068080000690800006808000067080000F1
:104C04006608000067080000690800006A080000E0
:104C14006808000068080000690800006A080000CD
:104C24006C0800006E0800006E0800006D080000AB
:104C34006D0800007108000073080000740800008B
:104C44007508000075080000730800007208000071
:104C5400730800007408000076080000780800005B
:104C6400760800007208000073080000760800004F
:104C740077080000790800007C0800007B08000029
:104C84007C0800007E0800007D0800007C0800000D
:104C94007D0800007E0800007F08000080080000F6
:104CA400800800007E0800007E0800007F080000E5
:104CB400800800007F0800007E0800007E080000D5
:104CC4008008000082080000820800007F080000BD
:104CD4007E080000800800008208000084080000AC
:104CE40085080000830800007F0800007D0800009C
:104CF4007D0800007F08000082080000840800008E
:104D0400820800008308000086080000860800006E
:104D1400860800008608000085080000820800005C
:104D24008108000083080000830800008308000055
:104D3400820800007F0800007E0800008008000050
:104D44008108000081080000830800008308000037
:104D54008208000081080000800800007E0800002E
:104D64008008000082080000810800007F0800001D
:104D74007F0800007F0800007E0800007D08000016
:104D84007C0800007A080000790800007908000017
:104D94007A0800007A08000077080000750800000F
:104DA4007308000075080000780800007808000007
:104DB4007408000071080000710800007108000008
:104DC40072080000730800007308000073080000F4
:104DD4007208000072080000700800006D080000EE
:104DE4006D0800006E0800006D0800006B080000EC
:104DF40069080000680800006908000069080000EC
:104E040069080000690800006808000066080000DE
:104E140066080000660800006608000069080000D3
:104E24006B080000680800006508000067080000BF
:104E340067080000620800006208000064080000BF
:104E440064080000630800006408000061080000B2
:104E54005D0800005E080000600800005E080000B5
:104E64005B0800005B0800005A0800005A080000B4
:104E74005C0800005B0800005708000057080000A9
:104E840058080000560800005508000057080000A4
:104E9400550800005308000053080000540800009F
:104EA40053080000510800004E0800004D0800009F
:104EB4004D0800004D0800004D0800004A0800009D
:104EC400480800004808000049080000480800009D
:104ED40044080000430800004308000044080000A0
:104EE4004508000047080000480800004808000082
:104EF40046080000430800003F0800003E08000088
:104F04003F0800003F0800003E0800003D08000084
:104F14003B0800003A080000390800003908000086
:104F2400390800003A0800003A0800003808000078
:104F3400360800003508000034080000320800007C
:104F44003308000033080000310800002F08000077
:104F54002E0800002B080000290800002A08000081
:104F64002A0800002A0800002B0800002C08000072
:104F74002B0800002C0800002B0800002908000062
:104F8400270800002508000024080000230800006A
:104F9400210800001E0800001C0800001B08000077
:104FA4001B0800001C0800001C0800001E0800006C
:104FB4001F0800001D0800001A080000180800005F
:104FC40014080000100800000F080000100800007A
:104FD4000F0800000D0800000D0800000D08000077
:104FE4000B0800000908000008080000070800007A
:104FF4000708000007080000060800000408000075
:105004000308000002080000020800000208000073
:105014000108000001080000FF070000FC07000071
:10502400F9070000F9070000FA070000FB07000079
:10503400F9070000F8070000F8070000F80700006F
:10504400F7070000F5070000F3070000F107000070
:10505400F0070000F1070000F0070000EE07000071
:10506400EC070000ED070000EF070000EF07000069
:10507400EA070000E6070000E7070000E707000072
:10508400E7070000E7070000E7070000E507000066
:10509400E2070000E0070000DF070000DF07000070
:1050A400DD070000DB070000DA070000DA07000074
:1050B400DC070000DD070000DB070000D807000064
:1050C400D8070000D9070000D8070000D607000061
:1050D400D4070000D2070000D1070000D107000068
:1050E400CF070000CD070000CD070000CD0700006A
:1050F400CC070000CB070000C8070000C60700006B
:10510400C5070000C5070000C6070000C50700006A
:10511400C4070000C5070000C4070000C007000062
:10512400BE070000BE070000BD070000BB0700006B
:10513400BB070000BC070000BC070000B807000064
:10514400B4070000B3070000B3070000B307000072
:10515400B4070000B4070000B2070000B307000062
:10516400B3070000AF070000AD070000AE07000062
:10517400AD070000AC070000AD070000AD0700005C
:10518400AA070000A7070000A7070000A607000061
:10519400A6070000A5070000A4070000A30700005D
:1051A400A3070000A5070000A6070000A60700004B
:1051B400A6070000A8070000A8070000A707000032
:1051C400A5070000A3070000A2070000A107000034
:1051D400A2070000A3070000A3070000A207000025
:1051E400A1070000A1070000A00700009F0700001E
:1051F4009D0700009D0700009D0700009C0700001C
:105204009B0700009B0700009C0700009B07000011
:105214009A0700009C0700009C0700009A07000002
:105224009807000097070000970700009707000001
:1052340096070000960700009507000096070000F7
:1052440098070000990700009807000096070000DF
:1052540096070000960700009507000096070000D7
:105264009707000098070000990700009C070000BA
:105274009D0700009C0700009907000099070000A3
:105284009A0700009A070000990700009907000098
:105294009A0700009B0700009C0700009E0700007F
:1052A400A00700009F0700009D0700009C07000066
:1052B4009C0700009D0700009D0700009E0700005A
:1052C4009F0700009F0700009F070000A007000041
:1052D400A3070000A4070000A20700009E07000027
:1052E4009D0700009D0700009D0700009E07000029
:1052F400A0070000A0070000A0070000A20700000C
:10530400A3070000A1070000A00700009E070000FB
:105314009C0700009C0700009D0700009E070000FA
:105324009F070000A1070000A2070000A2070000D9
:10533400A3070000A4070000A3070000A3070000C0
:10534400A5070000A7070000A8070000A9070000A0
:10535400A8070000A7070000A9070000AB0700008A
:10536400AA070000AB070000AC070000AC07000070
:10537400AC070000AD070000AD070000AC0700005B
:10538400AD070000AF070000B0070000B20700003F
:10539400B4070000B4070000B5070000B50700001B
:1053A400B4070000B2070000B2070000B407000011
:1053B400B6070000B7070000B6070000B4070000F6
:1053C400B5070000B7070000B9070000BC070000DC
:1053D400C0070000C1070000C0070000C0070000AC
:1053E400C1070000C2070000C4070000C507000091
:1053F400C5070000C5070000C6070000C707000076
:10540400C8070000CA070000CE070000D10700004B
:10541400D1070000D0070000CE070000CD07000030
:10542400CE070000D1070000D5070000D90700000F
:10543400DA070000DA070000DA070000DB070000E3
:10544400DA070000DB070000DD070000DE070000CC
:10545400DF070000E1070000E2070000E2070000A8
:10546400E2070000E1070000E2070000E607000091
:10547400E8070000E8070000E7070000E70700006E
:10548400E5070000E4070000E4070000E607000069
:10549400E7070000E8070000E9070000E90700004B
:1054A400E8070000E8070000E9070000EB07000038
:1054B400EB070000EB070000EC070000EC0700001E
:1054C400EC070000EF070000F3070000F6070000F8
:1054D400F6070000F7070000F8070000F7070000D0
:1054E400F6070000F6070000F8070000FB070000BD
:1054F400FD070000FF07000001080000020800008B
:105504000308000003080000040800000508000068
:105514000408000004080000060800000808000051
:105524000908000008080000080800000A08000034
:105534000C0800000E08000010080000110800000C
:1055440010080000110800001108000011080000F4
:1055540010080000110800001208000012080000E2
:1055640012080000130800001308000013080000CC
:1055740013080000140800001408000013080000B9
:1055840013080000150800001608000017080000A2
:10559400190800001B0800001C0800001C0800007B
:1055A4001F08000022080000230800002108000052
:1055B4001F08000020080000220800002408000042
:1055C4002508000026080000280800002C08000018
:1055D4002F0800002E0800002C0800002B080000F3
:1055E4002C0800002E0800002F08000030080000DE
:1055F40030080000310800003208000033080000C1
:10560400340800003608000037080000370800009E
:10561400370800003708000036080000360800008C
:105624003708000038080000370800003808000078
:10563400390800003A080000390800003908000061
:1056440039080000390800003A0800003D0800004D
:105654003E0800003F0800003F080000400800002A
:105664004108000041080000420800004208000010
:105674004208000041080000410800004008000002
:1056840041080000430800004508000046080000E7
:1056940046080000460800004708000048080000CB
:1056A400490800004A0800004A0800004A080000AF
:1056B4004B0800004D0800004F080000500800008F
:1056C4004E0800004B0800004A0800004B08000088
:1056D4004C0800004B0800004C0800004D08000076
:1056E4004E0800004E0800004D0800004B08000062
:1056F4004B0800004C0800004C0800004B08000058
:105704004C0800004D0800004C0800004C08000044
:105714004C0800004C0800004D0800005008000030
:105724004F0800004E0800004E0800004E0800001C
:105734004D0800004E0800004E0800004E0800000E
:1057440052080000540800005308000053080000E9
:1057540053080000540800005508000056080000D3
:1057640056080000550800005508000056080000BF
:1057740057080000570800005608000056080000AB
:105784005608000056080000580800005908000098
:105794005808000057080000570800005608000089
:1057A4005608000056080000550800005408000080
:1057B400530800005308000053080000520800007A
:1057C4005208000052080000540800005508000068
:1057D4005408000053080000530800005208000059
:1057E4005208000052080000510800005008000050
:1057F400510800005208000052080000510800003F
:10580400520800005208000052080000520800002C
:10581400520800005208000052080000510800001D
:105824005108000053080000550800005608000005
:1058340057080000560800005508000056080000EC
:1058440056080000540800005408000055080000E1
:1058540055080000550800005508000055080000D0
:1058640055080000560800005608000054080000BF
:1058740054080000530800005208000050080000BB
:10588400500800004F0800004F0800004E080000B8
:105894004E0800004E0800004E0800004D080000AD
:1058A4004D0800004C0800004C0800004C080000A3
:1058B4004B0800004A08000049080000490800009D
:1058C4004908000049080000490800004808000091
:1058D4004808000048080000470800004608000087
:1058E400450800004508000047080000480800007B
:1058F4004808000047080000460800004608000069
:105904004508000044080000430800004308000064
:105914004308000043080000430800004208000058
:105924004208000042080000430800004408000048
:10593400430800004208000040080000400800003E
:10594400410800003F0800003D0800003C0800003A
:105954003C0800003D0800003D0800003D08000030
:105964003D0800003C0800003A0800003908000027
:105974003B0800003B0800003A080000390800001A
:105984003908000039080000370800003608000014
:10599400370800003708000036080000350800000A
:1059A4003508000034080000340800003408000002
:1059B40036080000380800003808000036080000E7
:1059C4003408000032080000300800002F080000EE
:1059D4002E0800002E0800002D0800002D080000ED
:1059E4002E080000300800003108000031080000D3
:1059F40031080000300800002F0800002F080000C4
:105A04003008000030080000300800002F080000B3
:105A14002E0800002D0800002C0800002B080000B0
:105A24002B0800002B0800002B08000029080000A8
:105A340028080000280800002708000025080000A6
:105A4400250800002508000026080000260800009C
:105A54002508000025080000240800002308000091
:105A64002208000021080000200800001F08000090
:105A74001F08000020080000200800001E08000085
:105A84001D0800001B0800001A0800001A08000086
:105A9400190800001708000015080000120800008B
:105AA400100800001108000012080000120800008D
:105AB40012080000120800000F0800000C08000083
:105AC4000B0800000B0800000C0800000D08000083
